:03000000020BDB15
:0C0BDB00787FE4F6D8FD758197020C22AB
:100DB9002447504747410024474E474741002447AD
:100DC90050524D4300475053204465627567204D8A
:100DD9006F64650053686F772052617720446174AE
:080DE9006100000000000000A1
:100E5C00C100021E000002090000021C0000020B6F
:050E6C00000001080078
:0C0DF100C2A5C2A78F80D2A77F017E00A0
:100DFD00E4FDFCC3ED9FEC9E5015E4FBFA0BBB002C
:0F0E0D00010AEB64724A70F50DBD00010C80E420
:010E1C0022B3
:080E9800C2A6120DF1C2A7224F
:0A0E8600120E907F74120E907F3A56
:080E9000D2A6120DF1C2A72247
:100003007F38120E987F0C120E987F06120E987F7F
:0B00130001120E987F147E00020DFD0C
:040E7200E4FD7F011B
:100E7600EF6006ED44C0FF8004ED4480FF020E984B
:100E1D008B238A248925120E76AB23AA24A92512A9
:100E2D0006FF60130525E5257002052414F9120649
:080E3D00FFFF120E9080E2227B
:070C67007529037D047F01E4
:040C6E008F238D241F
:100C7200E4F534E47B0AFAF9F8AF28AE27AD26ACE6
:100C8200251207D0EB2430FFAE340534742A2EF837
:100C9200A607AF28AE27AD26AC25E47B0AFAF9F801
:100CA2001207D08F288E278D268C25EC4D4E4F6053
:100CB20007E534C3952940BBE534C39529500CAFF1
:100CC200340534742A2FF8763080EDAD24AF231228
:100CD2000E76AF341534EF600C742A2534F8E6FF33
:050CE200120E9080EDF0
:010CE70022EA
:100E4500758920758BFD758DFD759850D28ED2AF45
:070E5500D2ACD2A0D2A12211
:060026008B358A36893794
:10002C008B388A39893AE4F53B78417C00FD7BFFBB
:10003C007A0D79EBFE7F061206D9AB38AA39A93AAC
:10004C001206FF64246002C322E4F540AB38AA39DF
:10005C00A93A854082758300120718FF642C601141
:10006C00EF600E74412540F8A6070540E540B40545
:10007C00DB74412540F8E4F678417C00FD7BFF7A87
:10008C000D79B91209F1EF700A051DE51D703E05D9
:10009C001C803A78417C007D007BFF7A0D79C01280
:1000AC0009F1EF700A051DE51D7022051C801E78F4
:1000BC00417C007D007BFF7A0D79C71209F1EF704E
:1000CC000A050CE50C7006050B8002C322AB38AA9E
:1000DC0039A93A1206FFFF7003020607E5372450D0
:1000EC00F9E43536FA8A838982C3E53A9582E53993
:1000FC0095834003020607EFB42C02053BE53B64F5
:10010C0002702378417C00FD7BFF7A0D79B91209CE
:10011C00F1EF602F78417C007D007BFF7A0D79C078
:10012C001209F1EF601DE53B640360030202E878FD
:10013C00417C00FD7BFF7A0D79C71209F1EF60035A
:10014C000202E8AB38AA39A93A900001120718FF4D
:10015C00642C70030202E8EF70030202E8E4F53F3E
:10016C00F53EF53DF53C04806FAB38AA39A93A123F
:10017C0006FFFF642E606CEF642C6067EF6064C355
:10018C00648094B04050D3EF648094B95048E47FBD
:10019C000AFEFDFCAB3FAA3EA93DA83C120745A8B0
:1001AC0004C005C006C007AB38AA39A93A1206FF2D
:1001BC00FF3395E0FEEF24D0FFEE34FFFEE4FCFDB0
:1001CC00D003D002D001EB2FF53FEA3EF53EED39DE
:1001DC00F53DEC38F53C7401253AF53AE43539F542
:1001EC00398086E4FFFEFDFCAB3FAA3EA93DA83C4E
:1001FC00D312086250030202E8E47B64FAF9F8AF08
:10020C003FAE3EAD3DAC3C1207D08F138E128D111C
:10021C008C10E47B64FAF9F8AF3FAE3EAD3DAC3CDC
:10022C001207D0AC00AD01AE02AF03E47B64FAF967
:10023C00F81207458E188F19AB38AA39A93A12064D
:10024C00FF642E60030202E804253AF53AE43539DE
:10025C00F539E4F53FF53EF53DF53CF540AB38AAF4
:10026C0039A93A1206FFFFC3648094B04062D3EF01
:10027C00648094B9505AE47F0AFEFDFCAB3FAA3E61
:10028C00A93DA83C120745A804C005C006C007AB91
:10029C0038AA39A93A1206FFFF3395E0FEEF24D0B5
:1002AC00FFEE34FFFEE4FCFDD003D002D001EB2FB7
:1002BC00F53FEA3EF53EED39F53DEC38F53C740181
:1002CC00253AF53AE43539F5390540E540B4048D65
:1002DC00E53F2519F519E53E3518F518E53B64039E
:1002EC00702378417C00FD7BFF7A0D79B91209F1FE
:1002FC00EF602978417C007D007BFF7A0D79C0127C
:10030C0009F1EF6017E53B6404702878417C00FD2F
:10031C007BFF7A0D79C71209F1EF7017AB38AA3948
:10032C00A93A900001120718FF644E6004EFB45311
:10033C00028F0EE53B6404702378417C00FD7BFF4B
:10034C007A0D79B91209F1EF602F78417C007D00AC
:10035C007BFF7A0D79C01209F1EF601DE53B640556
:10036C00600302051E78417C00FD7BFF7A0D79C786
:10037C001209F1EF600302051EAB38AA39A93A90B5
:10038C000001120718FF642C700302051EEF7003A6
:10039C0002051EE4F53FF53EF53DF53C04806FABE0
:1003AC0038AA39A93A1206FFFF642E606CEF642C50
:1003BC006067EF6064C3648094B04050D3EF648096
:1003CC0094B95048E47F0AFEFDFCAB3FAA3EA93D20
:1003DC00A83C120745A804C005C006C007AB38AA44
:1003EC0039A93A1206FFFF3395E0FEEF24D0FFEE59
:1003FC0034FFFEE4FCFDD003D002D001EB2FF53F1F
:10040C00EA3EF53EED39F53DEC38F53C7401253A04
:10041C00F53AE43539F5398086E4FFFEFDFCAB3F57
:10042C00AA3EA93DA83CD3120862500302051EE463
:10043C007B64FAF9F8AF3FAE3EAD3DAC3C1207D051
:10044C008F178E168D158C14E47B64FAF9F8AF3F78
:10045C00AE3EAD3DAC3C1207D0AC00AD01AE02AF30
:10046C0003E47B64FAF9F81207458E1A8F1BAB383C
:10047C00AA39A93A1206FF642E600302051E042550
:10048C003AF53AE43539F539E4F53FF53EF53DF505
:10049C003CF540AB38AA39A93A1206FFFFC3648079
:1004AC0094B04062D3EF648094B9505AE47F0AFE52
:1004BC00FDFCAB3FAA3EA93DA83C120745A804C0D1
:1004CC0005C006C007AB38AA39A93A1206FFFF339C
:1004DC0095E0FEEF24D0FFEE34FFFEE4FCFDD003EC
:1004EC00D002D001EB2FF53FEA3EF53EED39F53D5C
:1004FC00EC38F53C7401253AF53AE43539F5390513
:10050C0040E540B4048DE53F251BF51BE53E351A4F
:10051C00F51AE53B6405702378417C00FD7BFF7A7E
:10052C000D79B91209F1EF602978417C007D007BCF
:10053C00FF7A0D79C01209F1EF6017E53B64067084
:10054C002878417C00FD7BFF7A0D79C71209F1EF09
:10055C007017AB38AA39A93A900001120718FF643A
:10056C00456004EFB457028F0FE53B6406702378A7
:10057C00417C00FD7BFF7A0D79B91209F1EF6029FE
:10058C0078417C007D007BFF7A0D79C01209F1EF78
:10059C006017E53B6402705578417C00FD7BFF7A67
:1005AC000D79C71209F1EF7044AB38AA39A93A900A
:1005BC000001120718FF6430600FEF6431600AEF1E
:0905CC0064416005EF64567024DF
:1005D5008F47E54764306005E547B45605750D5608
:1005E5008010E54764316005E547B44105750D4167
:0405F500C2A0D322AB
:0F05F9007401253AF53AE43539F5390200D9C3D2
:0106080022CF
:03002300020B4A83
:100B4A00C0E0C0F0C083C082C0D075D000C000C071
:0D0B5A0001C002C003C004C005C006C007F2
:100B6700309856AF99C298051FE51F7002051EC23F
:100B7700A1BF2405750800800DE508D39400401037
:100B8700E508944F500AAE08050874482EF8A607E2
:100B9700BF0A26E508D3940A401F74482508F8764B
:100BA700007B007A007948120026500AD200050A15
:090BB700E50A7002050975080049
:100BC000D007D006D005D004D003D002D001D00089
:0B0BD000D0D0D082D083D0F0D0E03233
:100CE800E4FDFF120E767F52120E907F78120E8B63
:100CF800E4851F28851E27F526F5257529057D031A
:100D0800FF120C6E7D08E4FF120E767F47120E90DC
:100D18007F47120E907F41120E8BE4851D28851C9B
:100D280027F526F5257529037D0CFF120C6E120E8A
:100D3800727F4F120E907F74120E907F68120E8B86
:100D4800E4850C28850B27F526F525120C677D0808
:0F0D58007F01120E767F53120E86AF0D020E90A2
:100D6700E4FDFF120E76E4F9744829F8E6FF601AED
:100D7700C3648094A0400AD3EF648094FE5002803D
:100D8700027F3F120E9009B910DE120E72791074AD
:100D97004829F8E6FF601AC3648094A0400AD3EF9D
:100DA700648094FE500280027F3F120E9009B920A2
:010DB700DE5D
:010DB8002218
:100A0E00E4F521F522D201750D56750E4E750F4582
:100A1E00F513F512F511F510F517F516F515F51484
:100A2E00F518F519F51AF51B120E451200037BFF8A
:100A3E007A0D79CEE4FDFF120E1D7BFF7A0D79DD66
:100A4E007D017F01120E1D7FD07E07120DFD7F01ED
:100A5E00120E980522E52270020521C394F4E521B9
:100A6E0094014012300105120D678003120CE8D27A
:100A7E00A1E4F521F522200003020B2CC201E4FDB6
:100A8E00FF120E767F4C120E907F61120E8685132A
:100A9E00288512278511268510257529027D04E4E7
:100AAE00FF120C6E7F2E120E90E4851928851827E2
:100ABE00F526F5257529047D07FF120C6E7D0EE4D3
:100ACE00FF120E76AF0E120E907D0FE4FF120E7611
:100ADE00AF0D120E90120E727F4C120E907F6F128F
:100AEE000E907F6E120E8B8517288516278515267C
:100AFE00851425120C677F2E120E90E4851B288517
:100B0E001A27F526F5257529047D087F01120C6E2E
:100B1E007D0E7F01120E76AF0F120E90C200D3E53E
:100B2E00229410E5219427400DE50A45097007D25D
:0C0B3E00017F01120E98120DF9020A61ED
:100BE700020A0EE493A3F8E493A34003F68001F20C
:100BF70008DFF48029E493A3F85407240CC8C3330F
:100C0700C4540F4420C8834004F456800146F6DFDD
:100C1700E4800B0102040810204080900E5CE47E03
:100C2700019360BCA3FF543F30E509541FFEE493D2
:100C3700A360010ECF54C025E060A840B8E493A399
:100C4700FAE493A3F8E493A3C8C582C8CAC583CAC4
:100C5700F0A3C8C582C8CAC583CADFE9DEE780BE7C
:010E71000080
:10060900E709F608DFFA8046E709F208DFFA803ED3
:1006190088828C83E709F0A3DFFA8032E309F608C0
:10062900DFFA8078E309F208DFFA807088828C8328
:10063900E309F0A3DFFA806489828A83E0A3F608DC
:10064900DFFA805889828A83E0A3F208DFFA804CB6
:1006590080D280FA80C680D4806980F2803380108D
:1006690080A680EA809A80A880DA80E280CA8033F6
:1006790089828A83ECFAE493A3C8C582C8CCC5836E
:10068900CCF0A3C8C582C8CCC583CCDFE9DEE7803E
:100699000D89828A83E493A3F608DFF9ECFAA9F0BD
:1006A900EDFB2289828A83ECFAE0A3C8C582C8CC13
:1006B900C583CCF0A3C8C582C8CCC583CCDFEADE2C
:1006C900E880DB89828A83E493A3F208DFF980CC8E
:1006D90088F0EF60010E4E60C388F0ED2402B40487
:1006E9000050B9F582EB2402B4040050AF2323452E
:0606F900822390065973F4
:1006FF00BB010689828A83E0225002E722BBFE02F9
:09070F00E32289828A83E493222B
:10071800BB010CE58229F582E5833AF583E0225096
:1007280006E92582F8E622BBFE06E92582F8E222E0
:0D073800E58229F582E5833AF583E49322FA
:10074500E88FF0A4CC8BF0A42CFCE98EF0A42CFC53
:100755008AF0EDA42CFCEA8EF0A4CDA8F08BF0A4D1
:100765002DCC3825F0FDE98FF0A42CCD35F0FCEB30
:100775008EF0A4FEA9F0EB8FF0A4CFC5F02ECD39F5
:0F078500FEE43CFCEAA42DCE35F0FDE43CFC2262
:1007940075F008758200EF2FFFEE33FECD33CDCC1C
:1007A40033CCC58233C5829BED9AEC99E58298409F
:1007B4000CF582EE9BFEED9AFDEC99FC0FD5F0D67C
:1007C400E4CEFBE4CDFAE4CCF9A88222B800C1B9A6
:1007D4000059BA002DEC8BF084CFCECDFCE5F0CBE4
:1007E400F97818EF2FFFEE33FEED33FDEC33FCEB1D
:1007F40033FB10D703994004EB99FB0FD8E5E4F9D8
:10080400FA227818EF2FFFEE33FEED33FDEC33FCC4
:10081400C933C910D7059BE99A4007EC9BFCE99AB8
:10082400F90FD8E0E4C9FAE4CCFB2275F010EF2FFD
:10083400FFEE33FEED33FDCC33CCC833C810D707FD
:100844009BEC9AE899400AED9BFDEC9AFCE899F838
:0E0854000FD5F0DAE4CDFBE4CCFAE4C8F922CB
:10086200EB9FF5F0EA9E42F0E99D42F0E89C45F0EC
:010872002263
:10087300E3F5F009E208B5F06D606B80F3E3F5F0A2
:1008830009E608B5F060605E80F387F009E608B515
:10089300F054605280F487F009E208B5F0486046EE
:1008A30080F488828C8387F009E0A3B5F038603642
:1008B30080F488828C8387F009E493A3B5F02760E2
:1008C3002580F388828C83E3F5F009E0A3B5F01665
:1008D300601480F388828C83E3F5F009E493A3B575
:1008E300F004600280F202099E808580E7808E809A
:1008F300D2803C8015806C807E809B80B5808B800D
:10090300A1804F8070803A0209AA89828A83ECFA17
:10091300E493F5F0A3C8C582C8CCC583CCE493A304
:10092300C8C582C8CCC583CCB5F070606E80E18940
:10093300828A83E493F5F0A3E208B5F05E605C80FD
:10094300F289828A83E0F5F0A3E608B5F04D604BA7
:1009530080F389828A83E0F5F0A3E208B5F03C6076
:100963003A80F389828A83E493F5F0A3E608B5F02D
:100973002A602880F2805389828A83ECFAE493F513
:10098300F0A3C8C582C8CCC583CCE0A3C8C582C8C0
:10099300CCC583CCB5F004600280E27FFFB5F002E2
:1009A3000F2240027F012289828A83ECFAE0F5F06C
:1009B300A3C8C582C8CCC583CCE0A3C8C582C8CCB4
:1009C300C583CCB5F0D560D380E389828A83ECFA02
:1009D300E0F5F0A3C8C582C8CCC583CCE493A3C813
:1009E300C582C8CCC583CCB5F0B160AF80E288F0D6
:1009F300ED2402B4040050A3F582EB2402B40400F6
:0B0A0300509923234582239008EC73D8
:00000001FF
