:030000000202EA0F
:0C02EA00787FE4F6D8FD758165020331D1
:100662001207CF7B017A0179647D647C00120376E4
:10067200EF4E60EF752B00752C00752D087B017A0B
:100682000179641201F0EF4E60D97B007A0079089B
:10069200E4FDFF1207AC7B007A007918E4FD7F01CC
:0506A2001207AC80BE50
:06082500AE071FEE600BA0
:0B082B007565021565E56560F180F859
:01083600229F
:1007E900EF1FAC0670011E4C600A7D027CEFDCFE37
:0407F900DDFC80ECB7
:0107FD0022D9
:06083700C2838FA0D282F3
:08083D007F027EEFDEFEDFFC0E
:010845002290
:0A085300C284120837C28202083D79
:10000300CFCDCFCECCCE1200A07C007D0A1200A0B3
:04001300ED2430FFA9
:0A001700D284120837C28202083DAD
:1007FE007F381208537F0C1208537F061208537F5E
:04080E000102085388
:10081200EF64017004ED148003ED243F4480FF1265
:0308220008532256
:0A085D00AC03120812AF04020017EA
:0607AC008B288A29892A2E
:1007B200120812E4FDAB28AA29A92A8D82758300AA
:0C07C20012003FFF60061200170D80E9D6
:0107CE002208
:0A075700EF24FFFDEE34FFFC7F0AE3
:080761008E5E8F5F8C608D61DC
:100769007F017E00E4FBEBC39561E5606480F8746A
:0E0779008098500AAC5EAD5F12008E0B80E8D7
:01078700224F
:040788008A518B52B5
:10078C00120812AA53EAFF7E00D39400748094805E
:0F079C00400D120757AC51AD521200031A80E600
:0107AB00222B
:1006A700120812C3EA64809480400B7F2B12001754
:1006B7008A478B48800E7F2D120017C3E49BF548AD
:1006C700E49AF547AA46EAFF7E00D3940074809423
:1006D70080400D120757AC47AD481200031A80E659
:0106E70022F0
:040617008A568B571D
:10061B00120812AA58EAD39400748094804037EAE7
:10062B0024FFFDE434FFFC7F107E00120761AC5603
:10063B00AD57CFCDCFCECCCE1200A0EF540FFEC313
:10064B00940A74809480EE5004243080022437FF87
:06065B001200171A80BF17
:010661002276
:0406E8008A5B8B5C42
:1006EC00120812AA5DEAFF7E00D3940074809480F5
:1006FC004026EF24FFFDEE34FFFC7F02120761ACB5
:10070C005BAD5CCFCDCFCECCCE1200A0EF5401248C
:08071C0030FF1200171A80CD16
:0107240022B2
:080867004750524D43002C00E4
:0C084600024B0000024D000002490000BF
:10072500E54EB54C0AE54DB54B057EFF7FFF22AE84
:100735004DAF4E74002FF58274003EF583E0FFE562
:100745004E2401FDE4354D754D008D4EEF3395E09A
:01075500FEA5
:010756002280
:1007CF0053890F438920758DFD758BFDD28E7598DA
:0A07DF0050D299C298D2ACD2AF22DA
:030023000205BC17
:1005BC00C0E0C083C082C0D075D000C002C003C0F0
:0505CC0004C005C0079A
:1005D10030982BC298AF99E54C2401FDE4354B7C52
:1005E10000ED654E7002E54D6014AA4BAB4C7400F2
:1005F1002BF58274003AF583EFF08C4B8D4C3099DA
:0306010002C29999
:10060400D007D005D004D003D002D0D0D082D0837C
:03061400D0E03201
:0A0376008B288A29892A8C2B8D2CF4
:100380001207258E2D8F2EEFF47002EEF46069E5D2
:100390002E6424452D7004F549F54AE52C24FFFF11
:1003A000E52B34FFFEC3E54A9FEE6480F8E549641F
:1003B0008098501AAB28AA29A92A054AE54AAC49CF
:1003C0007002054914F5828C83E52E12006CE52E2F
:1003D000640A452D70AAD3E54A9406E549648094E1
:1003E00080409DAB28AA29A92A854A82854983E4B1
:0B03F00012006C7E007F0122E4FEFF83
:0103FB0022DF
:0601F0008B288A29892AF0
:1001F600E4F531F532EA494B6008E52C452D452BEF
:1002060070030202E17536FF753708753867AB284B
:10021600AA29A92A1203FCE94A4B7003FEFF227899
:10022600007C017D01AB28AA29A92A1201C17536D5
:10023600FF75370875386D7B017A017900807DE599
:100246002F4530452E70030202CE0532E53270028C
:100256000531E5317057E53224FC60101460211435
:10026600603624037047A82DAC2C801FAB2EAA2F16
:10027600A930120026AB2BAA2CA92D90000F802A9C
:10028600E52D2410F9E4352CA801FCAD2BAB2EAAE4
:100296002FA9301201C18015AB2EAA2FA93012004A
:1002A60026AB2BAA2CA92D90001F12006C7536FFC9
:1002B60075370875386D7B007A00790012047E8BDD
:1002C6002E8A2F8930020245AB2BAA2CA92D1200AB
:1002D60026600890001012003F7004E4FEFF227EA4
:0302E600007F0195
:0102E90022F2
:1002F600020662E493A3F8E493A34003F68001F2B6
:1003060008DFF48029E493A3F85407240CC8C33308
:10031600C4540F4420C8834004F456800146F6DFD7
:10032600E4800B0102040810204080900846E47E19
:10033600019360BCA3FF543F30E509541FFEE493CC
:10034600A360010ECF54C025E060A840B8E493A393
:10035600FAE493A3F8E493A3C8C582C8CAC583CABE
:10036600F0A3C8C582C8CAC583CADFE9DEE780BE76
:0108520000A5
:10002600BB010689828A83E0225002E722BBFE02D8
:09003600E32289828A83E493220B
:10003F00BB010CE58229F582E5833AF583E0225076
:10004F0006E92582F8E622BBFE06E92582F8E222C0
:0D005F00E58229F582E5833AF583E49322DA
:10006C00F8BB010DE58229F582E5833AF583E8F0CA
:10007C00225006E92582C8F622BBFE05E92582C876
:02008C00F2225E
:10008E00EF8DF0A4A8F0CF8CF0A428CE8DF0A42E86
:02009E00FE2240
:1000A000BC000BBE0029EF8DF084FFADF022E4CC44
:1000B000F875F008EF2FFFEE33FEEC33FCEE9DEC0D
:1000C000984005FCEE9DFE0FD5F0E9E4CEFD22ED53
:1000D000F8F5F0EE8420D21CFEADF075F008EF2F9D
:1000E000FFED33FD4007985006D5F0F222C398FD8E
:0500F0000FD5F0EA222B
:1000F500E709F60870FA8046E709F20870FA803ECB
:1001050088828C83E709F0A370FA807EE309F608FC
:1001150070FA8076E309F20870FA806E88828C8323
:10012500E309F0A370FA806289828A83E0A3F60866
:1001350070FA805689828A83E0A3F20870FA804AB1
:1001450080D280FA80C680D4806580F280318010AC
:1001550080A680EA809A80A880DA80E280CA803111
:1001650089828A83ECFAE493A3C8C582C8CCC58387
:10017500CCF0A3C8C582C8CCC583CC70E9800D89F5
:10018500828A83E493A3F60870F9ECFAA9F0EDFBF3
:100195002289828A83ECFAE0A3C8C582C8CCC583CC
:1001A500CCF0A3C8C582C8CCC583CC70EA80DD89F4
:1001B500828A83E493A3F20870F980CE88F0ED2457
:1001C50002B4040050C4F582EB2402B4040050BA12
:0901D500232345822390014573A8
:1003FC008B338A348935AB36AA37A938120026607C
:10040C0063AB33AA34A935120026605F8536398573
:10041C00373A85383B8B3C8A3D893EAB39AA3AA9A1
:10042C003B120026FF6023AB3CAA3DA93E120026DE
:10043C006F701704253BF53BE4353AF53A7401250A
:10044C003EF53EE4353DF53D80D1AB39AA3AA93BAA
:10045C001200267002800D74012535F535E4353413
:10046C00F534809DAB33AA34A935227B007A007910
:02047C0000225C
:10047E008B338A348935E94A4B700985623385633B
:10048E0034856435E535453445337002802C853628
:10049E003C85373D85383EAB33AA34A9351204FE70
:1004AE00EF2535F535EE3534F534AB33FAA9351283
:1004BE000026700AF562F563F564FBFAF9228536BB
:1004CE003C85373D85383EAB33AA34A93512055FDE
:1004DE008B628A638964EA494B600EE41201DE0482
:1004EE002564F564E43563F563AB33AA34A935228C
:1001DE00BB010689828A83F0225002F722BBFE0100
:0201EE00F322FA
:1004FE008B398A3A893BE4F53FF540E4FEFFAB3C8D
:10050E00AA3DA93E8F828E8312003FFD6013AB3948
:10051E00AA3AA93B1200266D60070FBF00010E809C
:10052E00DDAB3CAA3DA93E8F828E8312003F700246
:10053E00801A0540E5407002053FAB39053BE53BAF
:10054E007002053AF9AA3A12002670AFAE3FAF40DC
:01055E00227A
:10055F008B398A3A893B853C3F853D40853E41AB8F
:10056F003FAA40A941120026FF6019AB39AA3AA948
:10057F003B1200266F600D74012541F541E43540B3
:10058F00F54080DBAB3FAA40A9411200266007ABC4
:10059F0039AA3AA93B22AB39053BE53BAA3A70028F
:0D05AF00053A14F912002670ADFBFAF9228E
:00000001FF
