:1002ED0000E010080810E000000F102020100F0093
:1002FD0000001010F8000000000020203F2020001A
:10030D00007008080808F000003028242221300071
:10031D0000300808088870000018202121221C00D8
:10032D000000804030F8000000060524243F2424FE
:10033D0000F88888880808000019202020110E0078
:10034D0000E0108888900000000F112020201F0071
:10035D0000180808886818000000003E0100000021
:10036D000070880808887000001C222121221C00C2
:10037D0000F008080810E0000001122222110F0001
:10038D003F3F3F3F3F3F3F3FFCFCFCFCFCFCFCFC88
:10039D0000000000000000000030300000000000F0
:1003AD000000000000000000000000000000000040
:1003BD00000000000000000000010101010101002A
:1003CD0000FC848484FC001010101010FF1010002D
:1003DD00003F1010103F0000010640807F0000001C
:1003ED00804020908886808080838C102040800003
:1003FD00008040201807004080403F0000000000B2
:10040D002424A4FE232200C03800FF000810600041
:10041D00080601FF01068180404027100C030000F3
:10042D002030AC63201880824222121A26428000AE
:10043D00226722121212404242427E424242400044
:10044D002030AC63201800084848FF484848080091
:10045D0022672212121200020202FF0212221E0055
:10046D000000FC242424FC252624FC242424040040
:10047D0040308F80844C55252525554C808080003B
:10048D00804020908886808080838C102040800062
:10049D00008040201807004080403F000000000011
:1004AD000008884828180FE8080808080808000000
:1004BD00002011090541817F01010509112000006E
:1004CD000202E22222FE222222FE2222E202020069
:1004DD000000FF484443404040434444FF000000B7
:1004ED0004E4242464A4243F24A4642424E4040008
:1004FD0000FF00080909097F09090948807F0000EC
:10050D000020202020FF000000FF402010080000E8
:10051D002060201010FF0000003F40404040780058
:10052D00000080C0E0E0E0E0E6EEFEFCF8E0E0E098
:10053D00E0E0F8FCFEEEE6E0E0E0E0C08000000068
:10054D0000FFFFFFFF01C1C1E1E1E1E1E1010101B7
:10055D000101E1E1E1E1E1C1C101FFFFFFFE0000A9
:10056D0000FFFFFFFF0001010101001070607038F6
:10057D0060603000000101010100FFFFFFFF00007E
:10058D0000030F1F1F3E3E7C7C7C3C3C3C3C3C3CB6
:10059D003C3C3C3C3C7C7C7C3C3E1F1F0F030000E4
:10000300010800010900110A4501010302044E021F
:09001300040107010102040008C8
:1009A300758920759850758DFA858D8B758780D2E2
:0609B300AFD2ACD28E228F
:10002600120982E4FF1208D9E4FF1209EB1209A3B0
:10003600751EFF751F0575202D7B107D037F03122E
:1000460007BD751EFF751F037520CD7B28E4FD7F58
:1000560001120889751EFF751F037520ED7B10E4DC
:10006600FD7F02120889751EFF751F0475200D7B22
:1000760030E4FD7F02120889751EFF751F04752086
:100086002D7B287D027F01120889751EFF751F04CE
:1000960075206D7B107D027F02120889751EFF7523
:1000A6001F0475208D7B307D027F02120889751E24
:1000B600FF751F0475204D7B287D047F011208897A
:1000C600751EFF751F0475206D7B107D047F02125F
:1000D6000889751EFF751F0475208D7B307D047F92
:1000E60002120889E51575F010A424EDF97402359D
:1000F600F0751EFFF51F89207B18E4FD7F011208AD
:1001060039E51675F010A424EDF9740235F0751E64
:10011600FFF51F89207B20E4FD7F01120839E517D2
:1001260075F010A424EDF9740235F0751EFFF51F65
:100136008920E4FBFD7F02120839E51875F010A44A
:1001460024EDF9740235F0751EFFF51F89207B0832
:10015600E4FD7F02120839E51975F010A424EDF9C3
:10016600740235F0751EFFF51F89207B20E4FD7FA4
:1001760002120839E51A75F010A424EDF974023557
:10018600F0751EFFF51F89207B28E4FD7F0212080B
:1001960039E50AB4450B751EFF751F047520AD8041
:1001A6000EE50AB45712751EFF751F047520CD7B28
:1001B600187D027F01120889E50B75F010A424ED65
:1001C600F9740235F0751EFFF51F89207B387D0214
:1001D6007F01120839E50C75F010A424EDF97402BC
:1001E60035F0751EFFF51F8920E4FB7D027F0212A4
:1001F6000839E50D75F010A424EDF9740235F07593
:100206001EFFF51F89207B087D027F02120839E553
:100216000E75F010A424EDF9740235F0751EFFF585
:100226001F89207B207D027F02120839E50F75F0B9
:1002360010A424EDF9740235F0751EFFF51F892010
:100246007B287D027F02120839E510B4530B751E18
:10025600FF751F047520ED800EE510B44E12751E55
:10026600FF751F0575200D7B187D047F0112088917
:10027600E51175F010A424EDF9740235F0751EFF32
:10028600F51F8920E4FB7D047F02120839E512750B
:10029600F010A424EDF9740235F0751EFFF51F89E0
:1002A600207B087D047F02120839E51375F010A43F
:1002B60024EDF9740235F0751EFFF51F89207B20A9
:1002C6007D047F02120839E51475F010A424EDF9B7
:1002D600740235F0751EFFF51F89207B287D047F8B
:0702E600021208390200EAD0
:030023000205AD26
:1005AD00C0E0C083C082C0D075D000C000C006C0FE
:0105BD000736
:1005BE00209803020720AF99C298E509B4110040B4
:1005CE00030207229005D9F828287302060C0206AA
:1005DE001A02062602063202063E02064A02065695
:1005EE000206770206970206B40206BE0206DB0278
:1005FE0006E50206EC0206F1020711020719EF6486
:10060E00476003020722750901020722BF500675D3
:10061E00090202072202071BBF47067509030207DC
:10062E002202071BBF470675090402072202071B99
:10063E00BF410675090502072202071BBF2C06756E
:10064E00090602072202071BEF24D0FE74152508A7
:10065E00F8A6060508E508D394017480948050032B
:10066E0002072275090702070CEF24D0FE74172526
:10067E0008F8A6060508E508D39401748094805006
:10068E00030207227509088075EF24D0FE74192520
:10069E0008F8A6060508E508D394017480948040F6
:1006AE00737509098058EF642C706975090A8064A6
:1006BE00EF24D0FE74112508F8A6060508E508D328
:1006CE00940374809480404C75090B8031EF642C38
:1006DE00704275090C803D8F1075090D80367509B5
:1006EE000E8031EF24D0FE740B2508F8A6060508FF
:1006FE00E508D3940474809480401975090F750829
:10070E00008011BF2C0E75091080098F0A75090023
:04071E008002C299FA
:0F072200D007D006D000D0D0D082D083D0E03224
:1009B900E4F580C2A3D2A4D2A5E58020E7FBC2A5B5
:0109C900220B
:1009CA001209B9C2A3C2A48F80D2A5000000C2A591
:0109DA0022FA
:10096100F582E433F583AB1EAA1FA92012090AFF01
:100971001209B9D2A3C2A48F80D2A5000000C2A5DA
:010981002253
:06001D004307B80209CA06
:0609EB004307C00209CA27
:0709DB0004FF12001DAF0430
:0909E20053073F4307400209CA14
:0609F10043073E0209CAA3
:10093700EF1460111460151460192403701BC2A012
:10094700C2A1C2A222C2A0D2A1D2A222D2A0C2A177
:0A095700D2A222D2A0D2A1C2A22295
:1008D900120937E4FEEEC39408748094805021AF66
:1008E9000612001DE4FF1209E2E4FDEDC394407411
:1008F9008094805008E4FF1209710D80EE0E80D5B6
:0109090022CB
:100982001209B9E4FF1209371209F1E4FF1209371B
:100992000F1209F1E4FF1209371208D9E4FF020924
:0109A200EB69
:040839008D1CAC0363
:10083D00120937AF1C1209DDE4FEEEC39408748073
:10084D0094805011AB1EAA1FA9208E8275830012B1
:10085D00096D0E80E5E51C1209DBE4FEEEC394087C
:10086D00748094805015EE2408F582E433F583AB43
:0B087D001EAA1FA92012096D0E80E1C9
:01088800224D
:040889008D1CAC0313
:10088D00120937AF1C1209DDE4FEEEC3941074801B
:10089D0094805011AB1EAA1FA9208E827583001261
:1008AD00096D0E80E5E51C1209DBE4FEEEC3941024
:1008BD00748094805015EE2410F582E433F583ABEB
:0B08CD001EAA1FA92012096D0E80E179
:0108D80022FD
:0407BD008D1CAC03E0
:1007C100120937AF1C1209DDE4FEEEC394207480D8
:1007D10094805011AB1EAA1FA9208E82758300122E
:1007E100096D0E80E5E51C1209DBE4FEEEC39420E1
:1007F100748094805009EE24201209610E80EDE589
:100801001C24021209DCE4FEEEC39420748094805F
:100811005009EE24401209610E80EDE51C240312FB
:1008210009DCE4FEEEC39420748094805009EE2428
:07083100601209610E80ED69
:01083800229D
:03000000020731C3
:0C073100787FE4F6D8FD7581200207787F
:10090A00BB010CE58229F582E5833AF583E02250A2
:10091A0006E92582F8E622BBFE06E92582F8E222EC
:0D092A00E58229F582E5833AF583E4932206
:10073D00020026E493A3F8E493A34003F68001F2AC
:10074D0008DFF48029E493A3F85407240CC8C333BD
:10075D00C4540F4420C8834004F456800146F6DF8C
:10076D00E4800B0102040810204080900003E47E19
:10077D00019360BCA3FF543F30E509541FFEE49381
:10078D00A360010ECF54C025E060A840B8E493A348
:10079D00FAE493A3F8E493A3C8C582C8CAC583CA73
:1007AD00F0A3C8C582C8CAC583CADFE9DEE780BE2B
:01001C0000E3
:00000001FF
