:03000000020553A3
:0C055300787FE4F6D8FD75813802059A27
:1000260000E010080810E000000F102020100F005C
:1000360000001010F8000000000020203F202000E3
:10004600007008080808F00000302824222130003B
:1000560000300808088870000018202121221C00A2
:100066000000804030F8000000060524243F2424C8
:1000760000F88888880808000019202020110E0042
:1000860000E0108888900000000F112020201F003B
:1000960000180808886818000000003E01000000EB
:1000A6000070880808887000001C222121221C008C
:1000B60000F008080810E0000001122222110F00CB
:1000C6003F3F3F3F3F3F3F3FFCFCFCFCFCFCFCFC52
:1000D60000000000000000000030300000000000BA
:1000E600000000000000000000000000000000000A
:1000F60000000000000000000001010101010100F4
:1001060000FC848484FC001010101010FF101000F6
:10011600003F1010103F0000010640807F000000E5
:10012600804020908886808080838C1020408000CC
:10013600008040201807004080403F00000000007B
:100146002424A4FE232200C03800FF00081060000B
:10015600080601FF01068180404027100C030000BD
:100166002030AC63201880824222121A2642800078
:10017600226722121212404242427E42424240000E
:100186002030AC63201800084848FF48484808005B
:1001960022672212121200020202FF0212221E001F
:1001A6000000FC242424FC252624FC24242404000A
:1001B60040308F80844C55252525554C8080800005
:1001C600804020908886808080838C10204080002C
:1001D600008040201807004080403F0000000000DB
:1001E6000008884828180FE80808080808080000CA
:1001F600002011090541817F010105091120000038
:100206000202E22222FE222222FE2222E202020032
:100216000000FF484443404040434444FF00000080
:1002260004E4242464A4243F24A4642424E40400D1
:1002360000FF00080909097F09090948807F0000B5
:100246000020202020FF000000FF402010080000B2
:100256002060201010FF0000003F40404040780022
:10026600000080C0E0E0E0E0E6EEFEFCF8E0E0E062
:10027600E0E0F8FCFEEEE6E0E0E0E0C08000000032
:1002860000FFFFFFFF01C1C1E1E1E1E1E101010181
:100296000101E1E1E1E1E1C1C101FFFFFFFE000073
:1002A60000FFFFFFFF0001010101001070607038C0
:1002B60060603000000101010100FFFFFFFF000048
:1002C60000030F1F1F3E3E7C7C7C3C3C3C3C3C3C80
:1002D6003C3C3C3C3C7C7C7C3C3E1F1F0F030000AE
:10072000010800010900110A4501010302044E02FB
:09073000040107010102040008A4
:10073A00758920759850758DFA858D8B758780D24D
:06074A00AFD2ACD28E22FA
:1004C40012076512073AE50AB445047B458007E53F
:1004D4000AB457097B577D01E4FF1207B7AB0B7DC4
:1004E40004E4FF1207B7AB0C7D05E4FF1207B7ABBA
:1004F4000D7D06E4FF1207B7AB0E7D08E4FF12077B
:10050400B7AB0F7D09E4FF1207B7E510B453047BC2
:10051400538007E510B44E097B4E7D017F0112071D
:10052400B7AB117D057F011207B7AB127D067F01C2
:100534001207B7AB137D087F011207B7AB147D090F
:0F0544007F011207B77F647E001207500204CABE
:030023000202E6F0
:1002E600C0E0C083C082C0D075D000C000C006C0C8
:0102F6000700
:1002F70020980302041FAF99C298E509B40D004086
:100307000302041A900312F8282873020339020320
:100317004702035502036302037102037F02038D41
:1003270002039B0203A80203D30203DA0203E402D7
:100337000416BF47047E0180027E008E0902042155
:10034700BF4E047E0280027E008E09020421BF5246
:10035700047E0380027E008E09020421BF4D047EC5
:100367000480027E008E09020421BF43047E0580BB
:10037700027E008E09020421BF2C047E0680027EC5
:10038700008E09020421EF642C6003020421750921
:1003970007020421EF642C60030204217509088019
:1003A70079BF2C05750909803AEFC39430406BEF8C
:1003B700D394395065E508C3940574809480505AE6
:1003C700EF24D0FFAE080508740B803D8F10750928
:1003D7000A8047EF642C704275090B803DBF2C08DB
:1003E70075090C7508008032EFC39430402CEFD3A9
:1003F70094395026E508C3940474809480501BEF09
:1004070024D0FFAE08050874112EF8A607800B8FBD
:0A0417000A80007509008002C299F6
:0F042100D007D006D000D0D0D082D083D0E03228
:06078C00AE071FEE600B3A
:0B0792007538021538E53860F180F87A
:01079D002239
:10075000EF1FAC0670011E4C600A7D027CEFDCFED0
:04076000DDFC80EC50
:010764002272
:06079E00C2A58F80D2A766
:0807A4007F027EEFDEFEDFFCA8
:0107AC00222A
:0A07AD00C2A612079EC2A70207A40D
:10000300CFCDCFCECCCE12046F7C007D0A12046F0D
:04001300ED2430FFA9
:0A001700D2A612079EC2A70207A49A
:100765007F381207AD7F0C1207AD7F061207AD7FEC
:04077500010207ADC9
:10077900EF64017004ED148003ED243F4480FF12FF
:0307890007AD2297
:0A07B700AC03120779AF040200172B
:0606FD008B358A368937B7
:10070300120779E4FDAB35AA36A9378D82758300CC
:0C071300120430FF60061200170D80E990
:01071F0022B7
:0A06A800EF24FFFDEE34FFFC7F0A93
:0806B2008E318F328C338D3440
:1006BA007F017E00E4FBEBC39534E5336480F87474
:0E06CA008098500AAC31AD3212045D0B80E80E
:0106D80022FF
:0406D9008A248B25BF
:1006DD00120779AA26EAFF7E00D3940074809480D5
:0F06ED00400D1206A8AC24AD251200031A80E6BA
:0106FC0022DB
:10062A00120779C3EA64809480400B7F2B1200176B
:10063A008A208B21800E7F2D120017C3E49BF5219F
:10064A00E49AF520AA1FEAFF7E00D39400748094EE
:10065A0080400D1206A8AC20AD211200031A80E6D4
:01066A00226D
:0405DF008A298B2AB0
:1005E300120779AA2BEAD39400748094804037EAE7
:1005F30024FFFDE434FFFC7F107E001206B2AC2919
:10060300AD2ACFCDCFCECCCE12046FEF540FFEC3A5
:10061300940A74809480EE5004243080022437FFBF
:060623001200171A80BF4F
:0106290022AE
:04066B008A2E8B2F19
:10066F00120779AA30EAFF7E00D394007480948039
:10067F004026EF24FFFDEE34FFFC7F021206B2ACE2
:10068F002EAD2FCFCDCFCECCCE12046FEF54012491
:08069F0030FF1200171A80CD94
:0106A7002230
:10055F000204C4E493A3F8E493A34003F68001F2EA
:10056F0008DFF48029E493A3F85407240CC8C3339D
:10057F00C4540F4420C8834004F456800146F6DF6C
:10058F00E4800B0102040810204080900720E47ED5
:10059F00019360BCA3FF543F30E509541FFEE49361
:1005AF00A360010ECF54C025E060A840B8E493A328
:1005BF00FAE493A3F8E493A3C8C582C8CAC583CA53
:1005CF00F0A3C8C582C8CAC583CADFE9DEE780BE0B
:0107390000BF
:10043000BB010CE58229F582E5833AF583E0225081
:1004400006E92582F8E622BBFE06E92582F8E222CB
:0D045000E58229F582E5833AF583E49322E5
:10045D00EF8DF0A4A8F0CF8CF0A428CE8DF0A42EB3
:02046D00FE226D
:10046F00BC000BBE0029EF8DF084FFADF022E4CC71
:10047F00F875F008EF2FFFEE33FEEC33FCEE9DEC3A
:10048F00984005FCEE9DFE0FD5F0E9E4CEFD22ED80
:10049F00F8F5F0EE8420D21CFEADF075F008EF2FCA
:1004AF00FFED33FD4007985006D5F0F222C398FDBB
:0504BF000FD5F0EA2258
:00000001FF
