:0300000002056492
:0C056400787FE4F6D8FD7581380205AB05
:1000260000E010080810E000000F102020100F005C
:1000360000001010F8000000000020203F202000E3
:10004600007008080808F00000302824222130003B
:1000560000300808088870000018202121221C00A2
:100066000000804030F8000000060524243F2424C8
:1000760000F88888880808000019202020110E0042
:1000860000E0108888900000000F112020201F003B
:1000960000180808886818000000003E01000000EB
:1000A6000070880808887000001C222121221C008C
:1000B60000F008080810E0000001122222110F00CB
:1000C6003F3F3F3F3F3F3F3FFCFCFCFCFCFCFCFC52
:1000D60000000000000000000030300000000000BA
:1000E600000000000000000000000000000000000A
:1000F60000000000000000000001010101010100F4
:1001060000FC848484FC001010101010FF101000F6
:10011600003F1010103F0000010640807F000000E5
:10012600804020908886808080838C1020408000CC
:10013600008040201807004080403F00000000007B
:100146002424A4FE232200C03800FF00081060000B
:10015600080601FF01068180404027100C030000BD
:100166002030AC63201880824222121A2642800078
:10017600226722121212404242427E42424240000E
:100186002030AC63201800084848FF48484808005B
:1001960022672212121200020202FF0212221E001F
:1001A6000000FC242424FC252624FC24242404000A
:1001B60040308F80844C55252525554C8080800005
:1001C600804020908886808080838C10204080002C
:1001D600008040201807004080403F0000000000DB
:1001E6000008884828180FE80808080808080000CA
:1001F600002011090541817F010105091120000038
:100206000202E22222FE222222FE2222E202020032
:100216000000FF484443404040434444FF00000080
:1002260004E4242464A4243F24A4642424E40400D1
:1002360000FF00080909097F09090948807F0000B5
:100246000020202020FF000000FF402010080000B2
:100256002060201010FF0000003F40404040780022
:10026600000080C0E0E0E0E0E6EEFEFCF8E0E0E062
:10027600E0E0F8FCFEEEE6E0E0E0E0C08000000032
:1002860000FFFFFFFF01C1C1E1E1E1E1E101010181
:100296000101E1E1E1E1E1C1C101FFFFFFFE000073
:1002A60000FFFFFFFF0001010101001070607038C0
:1002B60060603000000101010100FFFFFFFF000048
:1002C60000030F1F1F3E3E7C7C7C3C3C3C3C3C3C80
:1002D6003C3C3C3C3C7C7C7C3C3E1F1F0F030000AE
:10073100010800010900110A4501010302044E02EA
:0907410004010701010204000893
:10074B00758920759850758DFA858D8B758780D23C
:06075B00AFD2ACD28E22E9
:1004D50012077612074BE50AB445047B458007E50C
:1004E5000AB457097B577D01E4FF1207C8AB0B7DA2
:1004F50004E4FF1207C8AB0C7D05E4FF1207C8AB87
:100505000D7D06E4FF1207C8AB0E7D08E4FF120758
:10051500C8AB0F7D09E4FF1207C8E510B453047B8F
:10052500538007E510B44E097B4E7D017F0112070C
:10053500C8AB117D057F011207C8AB127D067F018F
:100545001207C8AB137D087F011207C8AB147D09DC
:0F0555007F011207C87F647E001207610204DB7A
:030023000202E6F0
:1002E600C0E0C083C082C0D075D000C000C006C0C8
:0102F6000700
:1002F700209803020430AF99C298E509B40E004074
:100307000302042B900312F828287302033C02030C
:100317004A0203580203660203740203820203902F
:1003270002039E0203AC0203B90203E40203EB02D9
:1003370003F5020427BF24047E0180027E008E0994
:10034700020432BF47047E0280027E008E09020447
:1003570032BF4E047E0380027E008E09020432BF44
:1003670052047E0480027E008E09020432BF4D04CF
:100377007E0580027E008E09020432BF43047E069A
:1003870080027E008E09020432BF2C047E078002A1
:100397007E008E09020432EF642C6003020432757A
:1003A7000908020432EF642C60030204327509095C
:1003B7008079BF2C0575090A803AEFC39430406BEA
:1003C700EFD394395065E508C39405748094805041
:1003D7005AEF24D0FFAE080508740B803D8F1075C7
:1003E700090B8047EF642C704275090C803DBF2CC8
:1003F7000875090D7508008032EFC39430402CEF63
:10040700D394395026E508C3940474809480501B14
:10041700EF24D0FFAE08050874112EF8A607800B4D
:0B0427008F0A80007509008002C29956
:0F043200D007D006D000D0D0D082D083D0E03217
:06079D00AE071FEE600B29
:0B07A3007538021538E53860F180F869
:0107AE002228
:10076100EF1FAC0670011E4C600A7D027CEFDCFEBF
:04077100DDFC80EC3F
:010775002261
:0607AF00C2A58F80D2A755
:0807B5007F027EEFDEFEDFFC97
:0107BD002219
:0A07BE00C2A61207AFC2A70207B5DA
:10000300CFCDCFCECCCE1204807C007D0A120480EB
:04001300ED2430FFA9
:0A001700D2A61207AFC2A70207B578
:100776007F381207BE7F0C1207BE7F061207BE7FA8
:04078600010207BEA7
:10078A00EF64017004ED148003ED243F4480FF12EE
:03079A0007BE2275
:0A07C800AC0312078AAF0402001709
:06070E008B358A368937A5
:1007140012078AE4FDAB35AA36A9378D82758300AA
:0C072400120441FF60061200170D80E96E
:0107300022A6
:0A06B900EF24FFFDEE34FFFC7F0A82
:0806C3008E318F328C338D342F
:1006CB007F017E00E4FBEBC39534E5336480F87463
:0E06DB008098500AAC31AD3212046E0B80E8EC
:0106E90022EE
:0406EA008A248B25AE
:1006EE0012078AAA26EAFF7E00D3940074809480B3
:0F06FE00400D1206B9AC24AD251200031A80E698
:01070D0022C9
:10063B0012078AC3EA64809480400B7F2B12001749
:10064B008A208B21800E7F2D120017C3E49BF5218E
:10065B00E49AF520AA1FEAFF7E00D39400748094DD
:10066B0080400D1206B9AC20AD211200031A80E6B2
:01067B00225C
:0405F0008A298B2A9F
:1005F40012078AAA2BEAD39400748094804037EAC5
:1006040024FFFDE434FFFC7F107E001206C3AC29F6
:10061400AD2ACFCDCFCECCCE120480EF540FFEC383
:10062400940A74809480EE5004243080022437FFAE
:060634001200171A80BF3E
:01063A00229D
:04067C008A2E8B2F08
:1006800012078AAA30EAFF7E00D394007480948017
:100690004026EF24FFFDEE34FFFC7F021206C3ACC0
:1006A0002EAD2FCFCDCFCECCCE120480EF5401246F
:0806B00030FF1200171A80CD83
:0106B800221F
:100570000204D5E493A3F8E493A34003F68001F2C8
:1005800008DFF48029E493A3F85407240CC8C3338C
:10059000C4540F4420C8834004F456800146F6DF5B
:1005A000E4800B0102040810204080900731E47EB3
:1005B000019360BCA3FF543F30E509541FFEE49350
:1005C000A360010ECF54C025E060A840B8E493A317
:1005D000FAE493A3F8E493A3C8C582C8CAC583CA42
:1005E000F0A3C8C582C8CAC583CADFE9DEE780BEFA
:01074A0000AE
:10044100BB010CE58229F582E5833AF583E0225070
:1004510006E92582F8E622BBFE06E92582F8E222BA
:0D046100E58229F582E5833AF583E49322D4
:10046E00EF8DF0A4A8F0CF8CF0A428CE8DF0A42EA2
:02047E00FE225C
:10048000BC000BBE0029EF8DF084FFADF022E4CC60
:10049000F875F008EF2FFFEE33FEEC33FCEE9DEC29
:1004A000984005FCEE9DFE0FD5F0E9E4CEFD22ED6F
:1004B000F8F5F0EE8420D21CFEADF075F008EF2FB9
:1004C000FFED33FD4007985006D5F0F222C398FDAA
:0504D0000FD5F0EA2247
:00000001FF
